{
  "_format": "hh-sol-artifact-1",
  "contractName": "Marketplace",
  "sourceName": "contracts/MarketPlace.sol",
  "abi": [
    {
      "inputs": [
        {
          "internalType": "address",
          "name": "_nftAddress",
          "type": "address"
        }
      ],
      "stateMutability": "nonpayable",
      "type": "constructor"
    },
    {
      "inputs": [],
      "name": "admin",
      "outputs": [
        {
          "internalType": "address",
          "name": "",
          "type": "address"
        }
      ],
      "stateMutability": "view",
      "type": "function"
    },
    {
      "inputs": [
        {
          "internalType": "uint256",
          "name": "",
          "type": "uint256"
        }
      ],
      "name": "auctions",
      "outputs": [
        {
          "internalType": "address",
          "name": "seller",
          "type": "address"
        },
        {
          "internalType": "uint256",
          "name": "tokenId",
          "type": "uint256"
        },
        {
          "internalType": "uint256",
          "name": "highestBid",
          "type": "uint256"
        },
        {
          "internalType": "address",
          "name": "highestBidder",
          "type": "address"
        },
        {
          "internalType": "uint256",
          "name": "endTime",
          "type": "uint256"
        },
        {
          "internalType": "bool",
          "name": "isActive",
          "type": "bool"
        }
      ],
      "stateMutability": "view",
      "type": "function"
    },
    {
      "inputs": [
        {
          "internalType": "uint256",
          "name": "tokenId",
          "type": "uint256"
        }
      ],
      "name": "bid",
      "outputs": [],
      "stateMutability": "payable",
      "type": "function"
    },
    {
      "inputs": [
        {
          "internalType": "uint256",
          "name": "tokenId",
          "type": "uint256"
        }
      ],
      "name": "buy",
      "outputs": [],
      "stateMutability": "payable",
      "type": "function"
    },
    {
      "inputs": [
        {
          "internalType": "uint256",
          "name": "tokenId",
          "type": "uint256"
        }
      ],
      "name": "endAuction",
      "outputs": [],
      "stateMutability": "nonpayable",
      "type": "function"
    },
    {
      "inputs": [
        {
          "internalType": "uint256",
          "name": "tokenId",
          "type": "uint256"
        },
        {
          "internalType": "uint256",
          "name": "price",
          "type": "uint256"
        }
      ],
      "name": "listForSale",
      "outputs": [],
      "stateMutability": "nonpayable",
      "type": "function"
    },
    {
      "inputs": [],
      "name": "nftContract",
      "outputs": [
        {
          "internalType": "contract ISkinNFT",
          "name": "",
          "type": "address"
        }
      ],
      "stateMutability": "view",
      "type": "function"
    },
    {
      "inputs": [
        {
          "internalType": "uint256",
          "name": "",
          "type": "uint256"
        }
      ],
      "name": "salePrices",
      "outputs": [
        {
          "internalType": "uint256",
          "name": "",
          "type": "uint256"
        }
      ],
      "stateMutability": "view",
      "type": "function"
    },
    {
      "inputs": [
        {
          "internalType": "uint256",
          "name": "tokenId",
          "type": "uint256"
        },
        {
          "internalType": "uint256",
          "name": "durationInSeconds",
          "type": "uint256"
        }
      ],
      "name": "startAuction",
      "outputs": [],
      "stateMutability": "nonpayable",
      "type": "function"
    }
  ],
  "bytecode": "0x60806040523480156200001157600080fd5b50604051620014e7380380620014e783398181016040528101906200003791906200012a565b80600260006101000a81548173ffffffffffffffffffffffffffffffffffffffff021916908373ffffffffffffffffffffffffffffffffffffffff16021790555033600360006101000a81548173ffffffffffffffffffffffffffffffffffffffff021916908373ffffffffffffffffffffffffffffffffffffffff160217905550506200015c565b600080fd5b600073ffffffffffffffffffffffffffffffffffffffff82169050919050565b6000620000f282620000c5565b9050919050565b6200010481620000e5565b81146200011057600080fd5b50565b6000815190506200012481620000f9565b92915050565b600060208284031215620001435762000142620000c0565b5b6000620001538482850162000113565b91505092915050565b61137b806200016c6000396000f3fe6080604052600436106100865760003560e01c8063b9a2de3a11610059578063b9a2de3a1461014f578063d56d229d14610178578063d96a094a146101a3578063e80d7fec146101bf578063f851a440146101e857610086565b8063321f53271461008b578063454a2ab3146100c85780634fee13fc146100e4578063571a26a01461010d575b600080fd5b34801561009757600080fd5b506100b260048036038101906100ad9190610d64565b610213565b6040516100bf9190610da0565b60405180910390f35b6100e260048036038101906100dd9190610d64565b61022b565b005b3480156100f057600080fd5b5061010b60048036038101906101069190610dbb565b610436565b005b34801561011957600080fd5b50610134600480360381019061012f9190610d64565b61068d565b60405161014696959493929190610e57565b60405180910390f35b34801561015b57600080fd5b5061017660048036038101906101719190610d64565b610716565b005b34801561018457600080fd5b5061018d610986565b60405161019a9190610f17565b60405180910390f35b6101bd60048036038101906101b89190610d64565b6109ac565b005b3480156101cb57600080fd5b506101e660048036038101906101e19190610dbb565b610bde565b005b3480156101f457600080fd5b506101fd610d03565b60405161020a9190610f32565b60405180910390f35b60016020528060005260406000206000915090505481565b600080600083815260200190815260200160002090508060050160009054906101000a900460ff16610292576040517f08c379a000000000000000000000000000000000000000000000000000000000815260040161028990610faa565b60405180910390fd5b806004015442106102d8576040517f08c379a00000000000000000000000000000000000000000000000000000000081526004016102cf90611016565b60405180910390fd5b8060020154341161031e576040517f08c379a000000000000000000000000000000000000000000000000000000000815260040161031590611082565b60405180910390fd5b600073ffffffffffffffffffffffffffffffffffffffff168160030160009054906101000a900473ffffffffffffffffffffffffffffffffffffffff1673ffffffffffffffffffffffffffffffffffffffff16146103e6578060030160009054906101000a900473ffffffffffffffffffffffffffffffffffffffff1673ffffffffffffffffffffffffffffffffffffffff166108fc82600201549081150290604051600060405180830381858888f193505050501580156103e4573d6000803e3d6000fd5b505b338160030160006101000a81548173ffffffffffffffffffffffffffffffffffffffff021916908373ffffffffffffffffffffffffffffffffffffffff1602179055503481600201819055505050565b3373ffffffffffffffffffffffffffffffffffffffff16600260009054906101000a900473ffffffffffffffffffffffffffffffffffffffff1673ffffffffffffffffffffffffffffffffffffffff16636352211e846040518263ffffffff1660e01b81526004016104a89190610da0565b602060405180830381865afa1580156104c5573d6000803e3d6000fd5b505050506040513d601f19601f820116820180604052508101906104e991906110ce565b73ffffffffffffffffffffffffffffffffffffffff161461053f576040517f08c379a000000000000000000000000000000000000000000000000000000000815260040161053690611147565b60405180910390fd5b6040518060c001604052803373ffffffffffffffffffffffffffffffffffffffff16815260200183815260200160008152602001600073ffffffffffffffffffffffffffffffffffffffff168152602001824261059c9190611196565b81526020016001151581525060008084815260200190815260200160002060008201518160000160006101000a81548173ffffffffffffffffffffffffffffffffffffffff021916908373ffffffffffffffffffffffffffffffffffffffff160217905550602082015181600101556040820151816002015560608201518160030160006101000a81548173ffffffffffffffffffffffffffffffffffffffff021916908373ffffffffffffffffffffffffffffffffffffffff1602179055506080820151816004015560a08201518160050160006101000a81548160ff0219169083151502179055509050505050565b60006020528060005260406000206000915090508060000160009054906101000a900473ffffffffffffffffffffffffffffffffffffffff16908060010154908060020154908060030160009054906101000a900473ffffffffffffffffffffffffffffffffffffffff16908060040154908060050160009054906101000a900460ff16905086565b600080600083815260200190815260200160002090508060050160009054906101000a900460ff1661077d576040517f08c379a000000000000000000000000000000000000000000000000000000000815260040161077490610faa565b60405180910390fd5b80600401544210156107c4576040517f08c379a00000000000000000000000000000000000000000000000000000000081526004016107bb90611216565b60405180910390fd5b60008160050160006101000a81548160ff021916908315150217905550600073ffffffffffffffffffffffffffffffffffffffff168160030160009054906101000a900473ffffffffffffffffffffffffffffffffffffffff1673ffffffffffffffffffffffffffffffffffffffff161461098257600260009054906101000a900473ffffffffffffffffffffffffffffffffffffffff1673ffffffffffffffffffffffffffffffffffffffff166342842e0e8260000160009054906101000a900473ffffffffffffffffffffffffffffffffffffffff168360030160009054906101000a900473ffffffffffffffffffffffffffffffffffffffff16856040518463ffffffff1660e01b81526004016108e093929190611236565b600060405180830381600087803b1580156108fa57600080fd5b505af115801561090e573d6000803e3d6000fd5b505050508060000160009054906101000a900473ffffffffffffffffffffffffffffffffffffffff1673ffffffffffffffffffffffffffffffffffffffff166108fc82600201549081150290604051600060405180830381858888f19350505050158015610980573d6000803e3d6000fd5b505b5050565b600260009054906101000a900473ffffffffffffffffffffffffffffffffffffffff1681565b60006001600083815260200190815260200160002054905060008111610a07576040517f08c379a00000000000000000000000000000000000000000000000000000000081526004016109fe906112b9565b60405180910390fd5b80341015610a4a576040517f08c379a0000000000000000000000000000000000000000000000000000000008152600401610a4190611325565b60405180910390fd5b6000600260009054906101000a900473ffffffffffffffffffffffffffffffffffffffff1673ffffffffffffffffffffffffffffffffffffffff16636352211e846040518263ffffffff1660e01b8152600401610aa79190610da0565b602060405180830381865afa158015610ac4573d6000803e3d6000fd5b505050506040513d601f19601f82011682018060405250810190610ae891906110ce565b9050600260009054906101000a900473ffffffffffffffffffffffffffffffffffffffff1673ffffffffffffffffffffffffffffffffffffffff166342842e0e8233866040518463ffffffff1660e01b8152600401610b4993929190611236565b600060405180830381600087803b158015610b6357600080fd5b505af1158015610b77573d6000803e3d6000fd5b505050508073ffffffffffffffffffffffffffffffffffffffff166108fc349081150290604051600060405180830381858888f19350505050158015610bc1573d6000803e3d6000fd5b506001600084815260200190815260200160002060009055505050565b3373ffffffffffffffffffffffffffffffffffffffff16600260009054906101000a900473ffffffffffffffffffffffffffffffffffffffff1673ffffffffffffffffffffffffffffffffffffffff16636352211e846040518263ffffffff1660e01b8152600401610c509190610da0565b602060405180830381865afa158015610c6d573d6000803e3d6000fd5b505050506040513d601f19601f82011682018060405250810190610c9191906110ce565b73ffffffffffffffffffffffffffffffffffffffff1614610ce7576040517f08c379a0000000000000000000000000000000000000000000000000000000008152600401610cde90611147565b60405180910390fd5b8060016000848152602001908152602001600020819055505050565b600360009054906101000a900473ffffffffffffffffffffffffffffffffffffffff1681565b600080fd5b6000819050919050565b610d4181610d2e565b8114610d4c57600080fd5b50565b600081359050610d5e81610d38565b92915050565b600060208284031215610d7a57610d79610d29565b5b6000610d8884828501610d4f565b91505092915050565b610d9a81610d2e565b82525050565b6000602082019050610db56000830184610d91565b92915050565b60008060408385031215610dd257610dd1610d29565b5b6000610de085828601610d4f565b9250506020610df185828601610d4f565b9150509250929050565b600073ffffffffffffffffffffffffffffffffffffffff82169050919050565b6000610e2682610dfb565b9050919050565b610e3681610e1b565b82525050565b60008115159050919050565b610e5181610e3c565b82525050565b600060c082019050610e6c6000830189610e2d565b610e796020830188610d91565b610e866040830187610d91565b610e936060830186610e2d565b610ea06080830185610d91565b610ead60a0830184610e48565b979650505050505050565b6000819050919050565b6000610edd610ed8610ed384610dfb565b610eb8565b610dfb565b9050919050565b6000610eef82610ec2565b9050919050565b6000610f0182610ee4565b9050919050565b610f1181610ef6565b82525050565b6000602082019050610f2c6000830184610f08565b92915050565b6000602082019050610f476000830184610e2d565b92915050565b600082825260208201905092915050565b7f41756374696f6e206e6f74206163746976650000000000000000000000000000600082015250565b6000610f94601283610f4d565b9150610f9f82610f5e565b602082019050919050565b60006020820190508181036000830152610fc381610f87565b9050919050565b7f41756374696f6e20656e64656400000000000000000000000000000000000000600082015250565b6000611000600d83610f4d565b915061100b82610fca565b602082019050919050565b6000602082019050818103600083015261102f81610ff3565b9050919050565b7f42696420746f6f206c6f77000000000000000000000000000000000000000000600082015250565b600061106c600b83610f4d565b915061107782611036565b602082019050919050565b6000602082019050818103600083015261109b8161105f565b9050919050565b6110ab81610e1b565b81146110b657600080fd5b50565b6000815190506110c8816110a2565b92915050565b6000602082840312156110e4576110e3610d29565b5b60006110f2848285016110b9565b91505092915050565b7f596f7520646f6e2774206f776e2074686973204e465400000000000000000000600082015250565b6000611131601683610f4d565b915061113c826110fb565b602082019050919050565b6000602082019050818103600083015261116081611124565b9050919050565b7f4e487b7100000000000000000000000000000000000000000000000000000000600052601160045260246000fd5b60006111a182610d2e565b91506111ac83610d2e565b92508282019050808211156111c4576111c3611167565b5b92915050565b7f41756374696f6e207374696c6c206f6e676f696e670000000000000000000000600082015250565b6000611200601583610f4d565b915061120b826111ca565b602082019050919050565b6000602082019050818103600083015261122f816111f3565b9050919050565b600060608201905061124b6000830186610e2d565b6112586020830185610e2d565b6112656040830184610d91565b949350505050565b7f4e4654206e6f7420666f722073616c6500000000000000000000000000000000600082015250565b60006112a3601083610f4d565b91506112ae8261126d565b602082019050919050565b600060208201905081810360008301526112d281611296565b9050919050565b7f496e73756666696369656e742066756e64730000000000000000000000000000600082015250565b600061130f601283610f4d565b915061131a826112d9565b602082019050919050565b6000602082019050818103600083015261133e81611302565b905091905056fea2646970667358221220199d52ef3b98841c63a377c105155846c3fa8259901eb586ec98debf97e76ba464736f6c63430008140033",
  "linkReferences": {},
  "deployedLinkReferences": {}
}